{
  "address": "0x591D792a41c90F4B6b96Af0A7cA5E0D648A4fe2F",
  "abi": [
    {
      "inputs": [
        {
          "internalType": "address",
          "name": "_priceFeed",
          "type": "address"
        }
      ],
      "stateMutability": "nonpayable",
      "type": "constructor"
    },
    {
      "stateMutability": "payable",
      "type": "fallback"
    },
    {
      "inputs": [],
      "name": "MINIMUM_USD",
      "outputs": [
        {
          "internalType": "uint256",
          "name": "",
          "type": "uint256"
        }
      ],
      "stateMutability": "view",
      "type": "function"
    },
    {
      "inputs": [
        {
          "internalType": "address",
          "name": "",
          "type": "address"
        }
      ],
      "name": "adressToAmountFunded",
      "outputs": [
        {
          "internalType": "uint256",
          "name": "",
          "type": "uint256"
        }
      ],
      "stateMutability": "view",
      "type": "function"
    },
    {
      "inputs": [],
      "name": "fund",
      "outputs": [],
      "stateMutability": "payable",
      "type": "function"
    },
    {
      "inputs": [
        {
          "internalType": "uint256",
          "name": "",
          "type": "uint256"
        }
      ],
      "name": "funders",
      "outputs": [
        {
          "internalType": "address",
          "name": "",
          "type": "address"
        }
      ],
      "stateMutability": "view",
      "type": "function"
    },
    {
      "inputs": [],
      "name": "i_owner",
      "outputs": [
        {
          "internalType": "address",
          "name": "",
          "type": "address"
        }
      ],
      "stateMutability": "view",
      "type": "function"
    },
    {
      "inputs": [],
      "name": "priceFeed",
      "outputs": [
        {
          "internalType": "contract AggregatorV3Interface",
          "name": "",
          "type": "address"
        }
      ],
      "stateMutability": "view",
      "type": "function"
    },
    {
      "inputs": [],
      "name": "widraw",
      "outputs": [],
      "stateMutability": "nonpayable",
      "type": "function"
    },
    {
      "stateMutability": "payable",
      "type": "receive"
    }
  ],
  "transactionHash": "0xb74e54a208584a4192c5c8e0695ec8250328ae500cc665c8aaa5c4d55383203b",
  "args": [
    "0x0a87e12689374A4EF49729582B474a1013cceBf8"
  ],
  "numDeployments": 1,
  "solcInputHash": "b789c8c971d5da3f8ea19eec599ab0fd",
  "bytecode": "0x60a060405234801561001057600080fd5b50604051610ece380380610ece83398181016040528101906100329190610110565b3373ffffffffffffffffffffffffffffffffffffffff1660808173ffffffffffffffffffffffffffffffffffffffff168152505080600260006101000a81548173ffffffffffffffffffffffffffffffffffffffff021916908373ffffffffffffffffffffffffffffffffffffffff1602179055505061013d565b600080fd5b600073ffffffffffffffffffffffffffffffffffffffff82169050919050565b60006100dd826100b2565b9050919050565b6100ed816100d2565b81146100f857600080fd5b50565b60008151905061010a816100e4565b92915050565b600060208284031215610126576101256100ad565b5b6000610134848285016100fb565b91505092915050565b608051610d6f61015f6000396000818161031f01526104fc0152610d6f6000f3fe6080604052600436106100745760003560e01c8063b60d42881161004e578063b60d428814610120578063b77745ea1461012a578063dba6335f14610141578063dc0d3dff1461016c57610083565b806355f2a7d51461008d5780636b69a592146100ca578063741bef1a146100f557610083565b36610083576100816101a9565b005b61008b6101a9565b005b34801561009957600080fd5b506100b460048036038101906100af9190610743565b6102d2565b6040516100c19190610789565b60405180910390f35b3480156100d657600080fd5b506100df6102ea565b6040516100ec9190610789565b60405180910390f35b34801561010157600080fd5b5061010a6102f7565b6040516101179190610803565b60405180910390f35b6101286101a9565b005b34801561013657600080fd5b5061013f61031d565b005b34801561014d57600080fd5b506101566104fa565b604051610163919061082d565b60405180910390f35b34801561017857600080fd5b50610193600480360381019061018e9190610874565b61051e565b6040516101a0919061082d565b60405180910390f35b6802b5e3af16b18800006101e8600260009054906101000a900473ffffffffffffffffffffffffffffffffffffffff163461055d90919063ffffffff16565b1015610229576040517f08c379a0000000000000000000000000000000000000000000000000000000008152600401610220906108fe565b60405180910390fd5b6000339080600181540180825580915050600190039060005260206000200160009091909190916101000a81548173ffffffffffffffffffffffffffffffffffffffff021916908373ffffffffffffffffffffffffffffffffffffffff16021790555034600160003373ffffffffffffffffffffffffffffffffffffffff1673ffffffffffffffffffffffffffffffffffffffff16815260200190815260200160002081905550565b60016020528060005260406000206000915090505481565b6802b5e3af16b188000081565b600260009054906101000a900473ffffffffffffffffffffffffffffffffffffffff1681565b7f000000000000000000000000000000000000000000000000000000000000000073ffffffffffffffffffffffffffffffffffffffff163373ffffffffffffffffffffffffffffffffffffffff16146103ab576040517f08c379a00000000000000000000000000000000000000000000000000000000081526004016103a29061096a565b60405180910390fd5b60005b600080549050811015610450576000600160008084815481106103d4576103d361098a565b5b9060005260206000200160009054906101000a900473ffffffffffffffffffffffffffffffffffffffff1673ffffffffffffffffffffffffffffffffffffffff1673ffffffffffffffffffffffffffffffffffffffff168152602001908152602001600020819055508080610448906109e8565b9150506103ae565b50600067ffffffffffffffff81111561046c5761046b610a31565b5b60405190808252806020026020018201604052801561049a5781602001602082028036833780820191505090505b50600090805190602001906104b0929190610639565b503373ffffffffffffffffffffffffffffffffffffffff166108fc479081150290604051600060405180830381858888f193505050501580156104f7573d6000803e3d6000fd5b50565b7f000000000000000000000000000000000000000000000000000000000000000081565b6000818154811061052e57600080fd5b906000526020600020016000915054906101000a900473ffffffffffffffffffffffffffffffffffffffff1681565b60008061056983610599565b90506000670de0b6b3a764000085836105829190610a60565b61058c9190610ae9565b9050809250505092915050565b6000808273ffffffffffffffffffffffffffffffffffffffff1663feaf968c6040518163ffffffff1660e01b815260040160a06040518083038186803b1580156105e257600080fd5b505afa1580156105f6573d6000803e3d6000fd5b505050506040513d601f19601f8201168201806040525081019061061a9190610ba7565b5050509150506402540be400816106319190610c22565b915050919050565b8280548282559060005260206000209081019282156106b2579160200282015b828111156106b15782518260006101000a81548173ffffffffffffffffffffffffffffffffffffffff021916908373ffffffffffffffffffffffffffffffffffffffff16021790555091602001919060010190610659565b5b5090506106bf91906106c3565b5090565b5b808211156106dc5760008160009055506001016106c4565b5090565b600080fd5b600073ffffffffffffffffffffffffffffffffffffffff82169050919050565b6000610710826106e5565b9050919050565b61072081610705565b811461072b57600080fd5b50565b60008135905061073d81610717565b92915050565b600060208284031215610759576107586106e0565b5b60006107678482850161072e565b91505092915050565b6000819050919050565b61078381610770565b82525050565b600060208201905061079e600083018461077a565b92915050565b6000819050919050565b60006107c96107c46107bf846106e5565b6107a4565b6106e5565b9050919050565b60006107db826107ae565b9050919050565b60006107ed826107d0565b9050919050565b6107fd816107e2565b82525050565b600060208201905061081860008301846107f4565b92915050565b61082781610705565b82525050565b6000602082019050610842600083018461081e565b92915050565b61085181610770565b811461085c57600080fd5b50565b60008135905061086e81610848565b92915050565b60006020828403121561088a576108896106e0565b5b60006108988482850161085f565b91505092915050565b600082825260208201905092915050565b7f4469646e27742073656e6420656e6f7567682100000000000000000000000000600082015250565b60006108e86013836108a1565b91506108f3826108b2565b602082019050919050565b60006020820190508181036000830152610917816108db565b9050919050565b7f4f6e6c79206f776e65722063616e20646f20746869732e000000000000000000600082015250565b60006109546017836108a1565b915061095f8261091e565b602082019050919050565b6000602082019050818103600083015261098381610947565b9050919050565b7f4e487b7100000000000000000000000000000000000000000000000000000000600052603260045260246000fd5b7f4e487b7100000000000000000000000000000000000000000000000000000000600052601160045260246000fd5b60006109f382610770565b91507fffffffffffffffffffffffffffffffffffffffffffffffffffffffffffffffff821415610a2657610a256109b9565b5b600182019050919050565b7f4e487b7100000000000000000000000000000000000000000000000000000000600052604160045260246000fd5b6000610a6b82610770565b9150610a7683610770565b9250817fffffffffffffffffffffffffffffffffffffffffffffffffffffffffffffffff0483118215151615610aaf57610aae6109b9565b5b828202905092915050565b7f4e487b7100000000000000000000000000000000000000000000000000000000600052601260045260246000fd5b6000610af482610770565b9150610aff83610770565b925082610b0f57610b0e610aba565b5b828204905092915050565b600069ffffffffffffffffffff82169050919050565b610b3981610b1a565b8114610b4457600080fd5b50565b600081519050610b5681610b30565b92915050565b6000819050919050565b610b6f81610b5c565b8114610b7a57600080fd5b50565b600081519050610b8c81610b66565b92915050565b600081519050610ba181610848565b92915050565b600080600080600060a08688031215610bc357610bc26106e0565b5b6000610bd188828901610b47565b9550506020610be288828901610b7d565b9450506040610bf388828901610b92565b9350506060610c0488828901610b92565b9250506080610c1588828901610b47565b9150509295509295909350565b6000610c2d82610b5c565b9150610c3883610b5c565b9250827f7fffffffffffffffffffffffffffffffffffffffffffffffffffffffffffffff0482116000841360008413161615610c7757610c766109b9565b5b817f80000000000000000000000000000000000000000000000000000000000000000583126000841260008413161615610cb457610cb36109b9565b5b827f80000000000000000000000000000000000000000000000000000000000000000582126000841360008412161615610cf157610cf06109b9565b5b827f7fffffffffffffffffffffffffffffffffffffffffffffffffffffffffffffff0582126000841260008412161615610d2e57610d2d6109b9565b5b82820290509291505056fea2646970667358221220052a5be1145356f57395cb782e7ada8e79fdb1005324946bd4c7da8d7e502ba264736f6c63430008090033",
  "devdoc": {
    "kind": "dev",
    "methods": {},
    "version": 1
  },
  "userdoc": {
    "kind": "user",
    "methods": {},
    "version": 1
  },
  "storageLayout": {
    "storage": [
      {
        "astId": 62,
        "contract": "contracts/FundMe.sol:FundMe",
        "label": "funders",
        "offset": 0,
        "slot": "0",
        "type": "t_array(t_address)dyn_storage"
      },
      {
        "astId": 66,
        "contract": "contracts/FundMe.sol:FundMe",
        "label": "adressToAmountFunded",
        "offset": 0,
        "slot": "1",
        "type": "t_mapping(t_address,t_uint256)"
      },
      {
        "astId": 69,
        "contract": "contracts/FundMe.sol:FundMe",
        "label": "priceFeed",
        "offset": 0,
        "slot": "2",
        "type": "t_contract(AggregatorV3Interface)45"
      }
    ],
    "types": {
      "t_address": {
        "encoding": "inplace",
        "label": "address",
        "numberOfBytes": "20"
      },
      "t_array(t_address)dyn_storage": {
        "base": "t_address",
        "encoding": "dynamic_array",
        "label": "address[]",
        "numberOfBytes": "32"
      },
      "t_contract(AggregatorV3Interface)45": {
        "encoding": "inplace",
        "label": "contract AggregatorV3Interface",
        "numberOfBytes": "20"
      },
      "t_mapping(t_address,t_uint256)": {
        "encoding": "mapping",
        "key": "t_address",
        "label": "mapping(address => uint256)",
        "numberOfBytes": "32",
        "value": "t_uint256"
      },
      "t_uint256": {
        "encoding": "inplace",
        "label": "uint256",
        "numberOfBytes": "32"
      }
    }
  }
}